:1000CB0011083F065B4F666D7D077F6F777C395E4E
:0300DB0079710038
:04010600C2A080FE15
:0400DF007F507EC30D
:0B00E300EF1FAC0670011E4C70F622EF
:0C00EE00C2A01200DFD2A01200DF80F4DC
:10008F00E4FDEDC394087480948050F4A8057401C6
:10009F00088002C333D8FCF4F5A01200DF0D80E214
:1000AF007BD07A07EB1BAE0270011A4E6007B2A528
:0C00BF001200DF80EFE4FAFBC2A580E82D
:0501010085088080FE6E
:0700FA00120101E4FEFF22E8
:03000000020003F8
:0C000300787FE4F6D8FD75811802004AF1
:10000F000200FAE493A3F8E493A34003F68001F20D
:10001F0008DFF48029E493A3F85407240CC8C333F2
:10002F00C4540F4420C8834004F456800146F6DFC1
:10003F00E4800B01020408102040809000CBE47E86
:10004F00019360BCA3FF543F30E509541FFEE493B6
:10005F00A360010ECF54C025E060A840B8E493A37D
:10006F00FAE493A3F8E493A3C8C582C8CAC583CAA8
:10007F00F0A3C8C582C8CAC583CADFE9DEE780BE60
:0100DE000021
:00000001FF
