:1002010011093F065B4F666D7D077F6F777C395E15
:06021100797100010801F3
:04024E00C2A080FECC
:040218007F507EC3D2
:0B021C00EF1FAC0670011E4C70F622B4
:0C023600C2A0120218D2A012021880F41C
:1001C500E4FDEDC394087480948050F4A80574018F
:1001D500088002C333D8FCF4F5A01202180D80E2A2
:1001E5007BD07A07EB1BAE0270011A4E6007B2A5F1
:0C01F50012021880EFE4FAFBC2A580E8BB
:0502490085098080FE24
:0601A100D2907F887E135E
:1001A700D3EF9400EE940040147D6E7C00ED1D703B
:0E01B700011CED4C70F7EF1F70E61E80E32276
:0F0227001201A1C2901201A31201A1C29080F195
:10008F00AE07ED7005C374079FFEEEB4080050581D
:10009F009000A6F82828730200BE0200C40200CA0E
:1000AF000200D30200D90200E20200EB0200EFD2FD
:1000BF0090C291800AD290D2918004C290D291C204
:1000CF0092C29322C290D2918004C290C291D292D6
:1000DF00C29322C290C291D292D29322C290800236
:0900EF00D290C291C292D2932278
:10015500EF6003750801E5086401702E30B10930C0
:10016500B00630B20320B3227FE87E0312021CE4FE
:10017500F50820B1037F012220B0037F022220B2BF
:10018500037F032220B3127F042230B10C30B00963
:0C01950030B20630B3037508017F002271
:1000F800E4FBF51A7A01F9E4FF120155AB07EB7E30
:10010800006401700EE51A70047D0180027D008D87
:100118001A8023EF64024E700DEAD3940174809420
:100128008040131A8010EB6403700BEAC3940574C3
:1001380080948050010AAF0109AD1A12008FE9645A
:0D014800087001F9EAFF7E001201A780AAED
:070242001200F8E4FEFF22A8
:03000000020003F8
:0C000300787FE4F6D8FD75811A02004AEF
:10000F00020242E493A3F8E493A34003F68001F2C3
:10001F0008DFF48029E493A3F85407240CC8C333F2
:10002F00C4540F4420C8834004F456800146F6DFC1
:10003F00E4800B0102040810204080900201E47E4E
:10004F00019360BCA3FF543F30E509541FFEE493B6
:10005F00A360010ECF54C025E060A840B8E493A37D
:10006F00FAE493A3F8E493A3C8C582C8CAC583CAA8
:10007F00F0A3C8C582C8CAC583CADFE9DEE780BE60
:0102170000E6
:00000001FF
